{
  "contractName": "SiteStorage",
  "abi": [
    {
      "inputs": [],
      "stateMutability": "nonpayable",
      "type": "constructor"
    },
    {
      "inputs": [],
      "name": "getSiteCount",
      "outputs": [
        {
          "internalType": "uint256",
          "name": "count",
          "type": "uint256"
        }
      ],
      "stateMutability": "view",
      "type": "function",
      "constant": true
    },
    {
      "inputs": [
        {
          "internalType": "uint256",
          "name": "index",
          "type": "uint256"
        }
      ],
      "name": "getSiteName",
      "outputs": [
        {
          "internalType": "string",
          "name": "name",
          "type": "string"
        }
      ],
      "stateMutability": "view",
      "type": "function",
      "constant": true
    },
    {
      "inputs": [
        {
          "internalType": "uint256",
          "name": "index",
          "type": "uint256"
        }
      ],
      "name": "getSitePosition",
      "outputs": [
        {
          "internalType": "int256",
          "name": "posX",
          "type": "int256"
        },
        {
          "internalType": "int256",
          "name": "posY",
          "type": "int256"
        }
      ],
      "stateMutability": "view",
      "type": "function",
      "constant": true
    },
    {
      "inputs": [
        {
          "internalType": "uint256",
          "name": "index",
          "type": "uint256"
        }
      ],
      "name": "getSiteSize",
      "outputs": [
        {
          "internalType": "int32",
          "name": "sizeX",
          "type": "int32"
        },
        {
          "internalType": "int32",
          "name": "sizeY",
          "type": "int32"
        }
      ],
      "stateMutability": "view",
      "type": "function",
      "constant": true
    },
    {
      "inputs": [
        {
          "internalType": "uint256",
          "name": "index",
          "type": "uint256"
        }
      ],
      "name": "getSiteColor",
      "outputs": [
        {
          "internalType": "uint32",
          "name": "color",
          "type": "uint32"
        }
      ],
      "stateMutability": "view",
      "type": "function",
      "constant": true
    },
    {
      "inputs": [
        {
          "internalType": "uint256",
          "name": "index",
          "type": "uint256"
        }
      ],
      "name": "getSiteMessageCount",
      "outputs": [
        {
          "internalType": "uint256",
          "name": "count",
          "type": "uint256"
        }
      ],
      "stateMutability": "view",
      "type": "function",
      "constant": true
    },
    {
      "inputs": [
        {
          "internalType": "uint256",
          "name": "siteIndex",
          "type": "uint256"
        },
        {
          "internalType": "uint256",
          "name": "msgIndex",
          "type": "uint256"
        }
      ],
      "name": "getSiteMessage",
      "outputs": [
        {
          "internalType": "string",
          "name": "message",
          "type": "string"
        }
      ],
      "stateMutability": "view",
      "type": "function",
      "constant": true
    },
    {
      "inputs": [
        {
          "internalType": "int32",
          "name": "posX",
          "type": "int32"
        },
        {
          "internalType": "int32",
          "name": "posY",
          "type": "int32"
        },
        {
          "internalType": "int32",
          "name": "sizeX",
          "type": "int32"
        },
        {
          "internalType": "int32",
          "name": "sizeY",
          "type": "int32"
        }
      ],
      "name": "addSite",
      "outputs": [],
      "stateMutability": "nonpayable",
      "type": "function"
    },
    {
      "inputs": [
        {
          "internalType": "uint256",
          "name": "index",
          "type": "uint256"
        },
        {
          "internalType": "string",
          "name": "name",
          "type": "string"
        }
      ],
      "name": "setSiteName",
      "outputs": [],
      "stateMutability": "nonpayable",
      "type": "function"
    },
    {
      "inputs": [
        {
          "internalType": "uint256",
          "name": "index",
          "type": "uint256"
        },
        {
          "internalType": "uint32",
          "name": "color",
          "type": "uint32"
        }
      ],
      "name": "setSiteColor",
      "outputs": [],
      "stateMutability": "nonpayable",
      "type": "function"
    },
    {
      "inputs": [
        {
          "internalType": "uint256",
          "name": "index",
          "type": "uint256"
        },
        {
          "internalType": "string",
          "name": "message",
          "type": "string"
        }
      ],
      "name": "addSiteMessage",
      "outputs": [],
      "stateMutability": "nonpayable",
      "type": "function"
    }
  ],
  "bytecode": "0x608060405234801561001057600080fd5b50336000806101000a81548173ffffffffffffffffffffffffffffffffffffffff021916908373ffffffffffffffffffffffffffffffffffffffff160217905550610e99806100606000396000f3fe608060405234801561001057600080fd5b50600436106100a95760003560e01c80639bd93881116100715780639bd9388114610252578063bddc1fa7146102d5578063d19609b614610358578063e5ef4131146103ff578063eb34929114610457578063f12fa03e146104a0576100a9565b80631750b531146100ae578063503ae27e146100f657806375edc53f146101345780638391f6e8146101835780638adae756146101a1575b600080fd5b6100da600480360360208110156100c457600080fd5b81019080803590602001909291905050506104e2565b604051808263ffffffff16815260200191505060405180910390f35b6101326004803603604081101561010c57600080fd5b8101908080359060200190929190803563ffffffff169060200190929190505050610522565b005b6101606004803603602081101561014a57600080fd5b810190808035906020019092919050505061056c565b604051808360030b81526020018260030b81526020019250505060405180910390f35b61018b6105bf565b6040518082815260200191505060405180910390f35b6101d7600480360360408110156101b757600080fd5b8101908080359060200190929190803590602001909291905050506105cc565b6040518080602001828103825283818151815260200191508051906020019080838360005b838110156102175780820151818401526020810190506101fc565b50505050905090810190601f1680156102445780820380516001836020036101000a031916815260200191505b509250505060405180910390f35b6102d36004803603604081101561026857600080fd5b81019080803590602001909291908035906020019064010000000081111561028f57600080fd5b8201836020820111156102a157600080fd5b803590602001918460018302840111640100000000831117156102c357600080fd5b90919293919293905050506106ab565b005b610356600480360360408110156102eb57600080fd5b81019080803590602001909291908035906020019064010000000081111561031257600080fd5b82018360208201111561032457600080fd5b8035906020019184600183028401116401000000008311171561034657600080fd5b9091929391929390505050610709565b005b6103846004803603602081101561036e57600080fd5b8101908080359060200190929190505050610771565b6040518080602001828103825283818151815260200191508051906020019080838360005b838110156103c45780820151818401526020810190506103a9565b50505050905090810190601f1680156103f15780820380516001836020036101000a031916815260200191505b509250505060405180910390f35b6104556004803603608081101561041557600080fd5b81019080803560030b9060200190929190803560030b9060200190929190803560030b9060200190929190803560030b9060200190929190505050610831565b005b6104836004803603602081101561046d57600080fd5b8101908080359060200190929190505050610b51565b604051808381526020018281526020019250505060405180910390f35b6104cc600480360360208110156104b657600080fd5b8101908080359060200190929190505050610bad565b6040518082815260200191505060405180910390f35b600080600183815481106104f257fe5b906000526020600020906004020160020190508060000160089054906101000a900463ffffffff16915050919050565b60006001838154811061053157fe5b90600052602060002090600402019050818160020160000160086101000a81548163ffffffff021916908363ffffffff160217905550505050565b60008060006001848154811061057e57fe5b906000526020600020906004020160020190508060000160009054906101000a900460030b92508060000160049054906101000a900460030b915050915091565b6000600180549050905090565b60606000600184815481106105dd57fe5b906000526020600020906004020160030190508060000183815481106105ff57fe5b906000526020600020018054600181600116156101000203166002900480601f01602080910402602001604051908101604052809291908181526020018280546001816001161561010002031660029004801561069d5780601f106106725761010080835404028352916020019161069d565b820191906000526020600020905b81548152906001019060200180831161068057829003601f168201915b505050505091505092915050565b6000600184815481106106ba57fe5b90600052602060002090600402019050600081600001805460018160011615610100020316600290049050146106ef57600080fd5b8282826000019190610702929190610be0565b5050505050565b60006001848154811061071857fe5b906000526020600020906004020160030190508060000183839091806001815401808255809150506001900390600052602060002001600090919290919290919290919250919061076a929190610be0565b5050505050565b60606001828154811061078057fe5b90600052602060002090600402016000018054600181600116156101000203166002900480601f0160208091040260200160405190810160405280929190818152602001828054600181600116156101000203166002900480156108255780601f106107fa57610100808354040283529160200191610825565b820191906000526020600020905b81548152906001019060200180831161080857829003601f168201915b50505050509050919050565b60008054906101000a900473ffffffffffffffffffffffffffffffffffffffff1673ffffffffffffffffffffffffffffffffffffffff163373ffffffffffffffffffffffffffffffffffffffff16146108f2576040517f08c379a00000000000000000000000000000000000000000000000000000000081526004018080602001828103825260178152602001807f6f6e6c792061646d696e2063616e20616464207369746500000000000000000081525060200191505060405180910390fd5b6108fa610c60565b60405180604001604052808660030b81526020018560030b815250905061091f610c80565b60405180606001604052808560030b81526020018460030b815260200160001963ffffffff1681525090506060600067ffffffffffffffff8111801561096457600080fd5b5060405190808252806020026020018201604052801561099857816020015b60608152602001906001900390816109835790505b5090506109a3610cad565b60405180602001604052808381525090506109bc610cc0565b604051806080016040528060405180602001604052806000815250815260200186815260200185815260200183815250905060018190806001815401808255809150506001900390600052602060002090600402016000909190919091506000820151816000019080519060200190610a36929190610cfa565b5060208201518160010160008201518160000160006101000a81548163ffffffff021916908360030b63ffffffff16021790555060208201518160000160046101000a81548163ffffffff021916908360030b63ffffffff160217905550505060408201518160020160008201518160000160006101000a81548163ffffffff021916908360030b63ffffffff16021790555060208201518160000160046101000a81548163ffffffff021916908360030b63ffffffff16021790555060408201518160000160086101000a81548163ffffffff021916908363ffffffff16021790555050506060820151816003016000820151816000019080519060200190610b41929190610d7a565b5050505050505050505050505050565b600080600060018481548110610b6357fe5b906000526020600020906004020190508060010160000160009054906101000a900460030b60030b92508060010160000160049054906101000a900460030b60030b915050915091565b60008060018381548110610bbd57fe5b906000526020600020906004020160030190508060000180549050915050919050565b828054600181600116156101000203166002900490600052602060002090601f016020900481019282601f10610c2157803560ff1916838001178555610c4f565b82800160010185558215610c4f579182015b82811115610c4e578235825591602001919060010190610c33565b5b509050610c5c9190610dda565b5090565b6040518060400160405280600060030b8152602001600060030b81525090565b6040518060600160405280600060030b8152602001600060030b8152602001600063ffffffff1681525090565b6040518060200160405280606081525090565b604051806080016040528060608152602001610cda610c60565b8152602001610ce7610c80565b8152602001610cf4610cad565b81525090565b828054600181600116156101000203166002900490600052602060002090601f016020900481019282601f10610d3b57805160ff1916838001178555610d69565b82800160010185558215610d69579182015b82811115610d68578251825591602001919060010190610d4d565b5b509050610d769190610dda565b5090565b828054828255906000526020600020908101928215610dc9579160200282015b82811115610dc8578251829080519060200190610db8929190610cfa565b5091602001919060010190610d9a565b5b509050610dd69190610df7565b5090565b5b80821115610df3576000816000905550600101610ddb565b5090565b5b80821115610e175760008181610e0e9190610e1b565b50600101610df8565b5090565b50805460018160011615610100020316600290046000825580601f10610e415750610e60565b601f016020900490600052602060002090810190610e5f9190610dda565b5b5056fea2646970667358221220340a3c116a0599cb8168caca2f0c9f0bf2d20e570cbb1c0d8a130f64f3276f2064736f6c63430007000033",
  "immutableReferences": {},
  "source": "// SPDX-License-Identifier: MIT\r\npragma solidity 0.7.0;\r\n\r\nimport \"./Game.sol\";\r\n\r\ncontract SiteStorage {\r\n    address admin;\r\n    Game.Site[] sites;\r\n    \r\n    constructor() {\r\n        admin = msg.sender;\r\n    }\r\n\r\n    function getSiteCount()\r\n    public \r\n    view \r\n    returns (uint count) {\r\n        count = sites.length;\r\n    }\r\n\r\n    function getSiteName(uint index) \r\n    public \r\n    view \r\n    returns (string memory name)\r\n    {\r\n        name = sites[index].name;\r\n    }\r\n\r\n    function getSitePosition(uint index) \r\n    public \r\n    view \r\n    returns (int posX, int posY) {\r\n        Game.Site storage site = sites[index];\r\n        posX = site.position.x;\r\n        posY = site.position.y;\r\n    }\r\n\r\n    function getSiteSize(uint index)\r\n    public \r\n    view \r\n    returns (int32 sizeX, int32 sizeY) {\r\n        Game.SiteGraphicsComponent storage comp = sites[index].graphicsComponent;\r\n        sizeX = comp.sizeX;\r\n        sizeY = comp.sizeY;\r\n    }\r\n\r\n    function getSiteColor(uint index)\r\n    public\r\n    view\r\n    returns (uint32 color) {\r\n        Game.SiteGraphicsComponent storage comp = sites[index].graphicsComponent;\r\n        color = comp.color;\r\n    }\r\n\r\n    function getSiteMessageCount(uint index) \r\n    public \r\n    view \r\n    returns (uint count)\r\n    {\r\n        Game.SiteMessageComponent storage comp = sites[index].messageComponent; \r\n        count = comp.messages.length;\r\n    }\r\n\r\n    function getSiteMessage(uint siteIndex, uint msgIndex) \r\n    public \r\n    view \r\n    returns (string memory message)\r\n    {\r\n        Game.SiteMessageComponent storage comp = sites[siteIndex].messageComponent; \r\n        message = comp.messages[msgIndex];\r\n    }\r\n\r\n    function addSite(int32 posX, int32 posY, int32 sizeX, int32 sizeY) public {\r\n        require(msg.sender == admin, \"only admin can add site\");\r\n        Math.Vector2 memory pos = Math.Vector2(posX, posY);\r\n        Game.SiteGraphicsComponent memory graphicsComp = \r\n            Game.SiteGraphicsComponent(sizeX, sizeY, ~uint32(0));\r\n        string[] memory messages = new string[](0);\r\n        Game.SiteMessageComponent memory messageComp = Game.SiteMessageComponent(messages);\r\n        Game.Site memory site = Game.Site(\"\", pos, graphicsComp, messageComp);\r\n        sites.push(site);\r\n    }\r\n\r\n    function setSiteName(uint index, string calldata name) public {\r\n        Game.Site storage site = sites[index];\r\n        require(bytes(site.name).length == 0);\r\n        site.name = name;\r\n    }\r\n\r\n    function setSiteColor(uint index, uint32 color) public {\r\n        Game.Site storage site = sites[index];\r\n        site.graphicsComponent.color = color;\r\n    }\r\n\r\n    function addSiteMessage(uint index, string calldata message) public {\r\n        Game.SiteMessageComponent storage comp = sites[index].messageComponent;\r\n        comp.messages.push(message);\r\n    }\r\n}\r\n",
  "sourcePath": "D:/repos/ethereum/prototype/contracts/SiteStorage.sol",
  "compiler": {
    "name": "solc",
    "version": "0.7.0+commit.9e61f92b.Emscripten.clang"
  },
  "schemaVersion": "3.2.3",
  "updatedAt": "2020-09-04T22:22:02.100Z",
  "networkType": "ethereum",
  "devdoc": {
    "kind": "dev",
    "methods": {},
    "version": 1
  },
  "userdoc": {
    "kind": "user",
    "methods": {},
    "version": 1
  }
}